:060000000A128A1100291A
:10000800F100030EF2008C181B20720E8300F10E13
:10001800710E0900031383120B308F00DC308E0041
:100028000C1003138312F00A7008850008008C1066
:10003800F30A7308023C03192220080003138312F1
:06004800F301860A080026
:1002000008211721222129213921031383120729CB
:1002100003178316880189010313831685010610CD
:100220000313831285018601F001F3010800031313
:1002300083160C148C14031383128B170B170C10DA
:100240008C100800031383160F140F178F120F1250
:1002500008000313831210139016101290119010BF
:100260001014031383120B308F00DC308E000C103F
:100270000800031383121217921612169215921485
:100280001214121503138316F430920091018C108E
:02029000080064
:04400E00D420FF3F7C
:00000001FF
